:040000003BEFDFF003
:08000800046ED8CF05F0E0CF33
:1000100006F00001E9CF0CF0EACF07F0E1CF08F0DD
:10002000E2CF09F0D9CF0AF0DACF0BF0F3CF12F01C
:10003000F4CF13F0FACF14F0F5CF15F0F6CF16F099
:10004000F7CF17F0F8CF18F0FBCF19F000C00EF083
:1000500001C00FF002C010F003C011F09DA034EFFA
:1000600000F09EB063EFB7F0A3AA3AEF00F0A4BA95
:10007000C5EF7DF00EC000F00FC001F010C002F01F
:1000800011C003F00CC0E9FF07C0EAFF078E08C0EB
:10009000E1FF09C0E2FF0AC0D9FF0BC0DAFF12C0BE
:1000A000F3FF13C0F4FF14C0FAFF15C0F5FF16C02C
:1000B000F6FF17C0F7FF18C0F8FF19C0FBFF045088
:1000C00006C0E0FF05C0D8FF1000F76ADE0FF66E2D
:1000D000000EF722000EF86E0900F5501200040E13
:1000E0001504040000000404150E04000000080CB0
:1000F0000E0F0E0C0800000404150E040000000191
:100100000214080800000000000404150E0400009A
:1001100000040E150404F76A2A0FF66E010EF7228A
:10012000000EF86E0900F5501200280C01060A0DA9
:100130004475206C69657520746169206E67616E15
:10014000206C6F2025640A0D00000A0D55313D20FA
:100150002566284B56290A0D00000A0D49313D201D
:1001600025662841290A0D000A0D434F53313D20D1
:10017000253032660A0D00000A0D503D2025660A22
:100180000D000A0D713D2025660A0D000C004E6F12
:100190004C6F6E6746696C654E616D652100402C41
:1001A00025642C32302532642D253032642D2530E3
:1001B000326420253032643A253032643A253032B8
:1001C000642C25662C25662C25662C25662C256638
:1001D0002C25662C253032662C253032662C2530B5
:1001E00032662C256C752C25662C25662C23000088
:1001F00045564E4550552052545500002530326426
:100200003A253032642D253032642F253032642F68
:1002100032302564000053455454494E47204D4523
:10022000544552003E3E4D45544552310000534521
:100230005454494E47204D45544552003E3E4D458D
:1002400054455232000053455454494E47204D45C1
:10025000544552003E3E4D455445523300005345EF
:100260005454494E47204D45544552003E3E4D455D
:1002700054455234000053455454494E47204D458F
:10028000544552003E3E4D455445523500005345BD
:100290005454494E47204D45544552003E3E4D452D
:1002A00054455236000053455454494E47204D455D
:1002B000544552003E3E4D4554455237000053458B
:1002C0005454494E47204D45544552003E3E4D45FD
:1002D00054455238000053455454494E47204D452B
:1002E000544552003E3E4D45544552390000534559
:1002F0005454494E47204D45544552003E3E4D45CD
:1003000054455231300053455454494E47204D45D1
:10031000544552003E3E4D455445523131005345FF
:100320005454494E47204D45544552003E3E4D459C
:1003300054455231320053455454494E47204D459F
:10034000544552003E3E4D455445523133005345CD
:100350005454494E47204D45544552003E3E4D456C
:1003600054455231340053455454494E47204D456D
:10037000544552003E3E4D4554455231350053459B
:100380005454494E47204D45544552003E3E4D453C
:1003900054455231360053455454494E47204D453B
:1003A000544552003E3E4D45544552313700534569
:1003B0005454494E47204D45544552003E3E4D450C
:1003C00054455231380053455454494E47204D4509
:1003D000544552003E3E4D45544552313900534537
:1003E0005454494E47204D45544552003E3E4D45DC
:1003F00054455232300053455454494E47204D45E0
:10040000544552003E3E4D4554455232310053450D
:100410005454494E47204D45544552003E3E4D45AB
:1004200054455232320053455454494E47204D45AD
:10043000544552003E3E4D455445523233005345DB
:100440005454494E47204D45544552003E3E4D457B
:1004500054455232340053455454494E47204D457B
:10046000544552003E3E4D455445523235005345A9
:100470005454494E47204D45544552003E3E4D454B
:1004800054455232360053455454494E47204D4549
:10049000544552003E3E53455454494E472049501E
:1004A000000053455454494E47204D455445520091
:1004B0003E3E53455454494E472044415445000064
:1004C00053455454494E47204D4554455231000040
:1004D0003E4D455445523120454E41424C45000069
:1004E00053455454494E47204D4554455231000020
:1004F0003E4D455445523120545950450000534516
:100500005454494E47204D455445523100003E4316
:10051000555252454E54204D4158000053455454B5
:10052000494E47204D455445523100003E55204D1F
:100530004158000053455454494E47204D455445B9
:10054000523200003E4D455445523220454E414204
:100550004C45000053455454494E47204D455445A1
:10056000523200003E4D45544552322054595045B8
:10057000000053455454494E47204D45544552328E
:1005800000003E43555252454E54204D4158000004
:1005900053455454494E47204D455445523200006E
:1005A0003E55204D4158000053455454494E472074
:1005B0004D455445523300003E4D4554455233207D
:1005C000454E41424C45000053455454494E472046
:1005D0004D455445523300003E4D4554455233205D
:1005E00054595045000053455454494E47204D45F9
:1005F0005445523300003E43555252454E54204D0F
:100600004158000053455454494E47204D455445E8
:10061000523300003E55204D41580000534554547C
:10062000494E47204D455445523400003E4D4554F7
:1006300045523420454E41424C45000053455454E8
:10064000494E47204D455445523400003E4D4554D7
:100650004552342054595045000053455454494E96
:1006600047204D455445523400003E4355525245B3
:100670004E54204D4158000053455454494E472094
:100680004D455445523400003E55204D4158000020
:1006900053455454494E47204D455445523500006A
:1006A0003E4D455445523520454E41424C45000093
:1006B00053455454494E47204D455445523500004A
:1006C0003E4D455445523520545950450000534540
:1006D0005454494E47204D455445523500003E4341
:1006E000555252454E54204D4158000053455454E4
:1006F000494E47204D455445523500003E55204D4A
:100700004158000053455454494E47204D455445E7
:10071000523600003E4D455445523620454E41422A
:100720004C45000053455454494E47204D455445CF
:10073000523600003E4D45544552362054595045DE
:10074000000053455454494E47204D4554455236B8
:1007500000003E43555252454E54204D4158000032
:1007600053455454494E47204D4554455236000098
:100770003E55204D4158000053455454494E4720A2
:100780004D455445523700003E4D455445523720A3
:10079000454E41424C45000053455454494E472074
:1007A0004D455445523700003E4D45544552372083
:1007B00054595045000053455454494E47204D4527
:1007C0005445523700003E43555252454E54204D39
:1007D0004158000053455454494E47204D45544517
:1007E000523700003E55204D4158000053455454A7
:1007F000494E47204D455445523800003E4D455422
:1008000045523820454E41424C4500005345545412
:10081000494E47204D455445523800003E4D455401
:100820004552382054595045000053455454494EC0
:1008300047204D455445523800003E4355525245DD
:100840004E54204D4158000053455454494E4720C2
:100850004D455445523800003E55204D415800004A
:1008600053455454494E47204D4554455239000094
:100870003E4D455445523920454E41424C450000BD
:1008800053455454494E47204D4554455239000074
:100890003E4D45544552392054595045000053456A
:1008A0005454494E47204D455445523900003E436B
:1008B000555252454E54204D415800005345545412
:1008C000494E47204D455445523900003E55204D74
:1008D0004158000053455454494E47204D45544516
:1008E000523130003E4D45544552313020454E4145
:1008F000424C450053455454494E47204D455445BC
:10090000523130003E4D45544552313020545950FB
:10091000450053455454494E47204D4554455231A6
:1009200030003E43555252454E54204D4158000030
:1009300053455454494E47204D455445523130009B
:100940003E55204D4158000053455454494E4720D0
:100950004D455445523131003E4D4554455231319B
:1009600020454E41424C450053455454494E472082
:100970004D455445523131003E4D4554455231317B
:1009800020545950450053455454494E47204D4535
:100990005445523131003E43555252454E54204D3C
:1009A0004158000053455454494E47204D45544545
:1009B000523131003E55204D4158000053455454AA
:1009C000494E47204D455445523132003E4D455425
:1009D0004552313220454E41424C45005345545416
:1009E000494E47204D455445523132003E4D455405
:1009F0004552313220545950450053455454494EC4
:100A000047204D455445523132003E4355525245E0
:100A10004E54204D4158000053455454494E4720F0
:100A20004D455445523132003E55204D415800004D
:100A300053455454494E47204D4554455231330097
:100A40003E4D45544552313320454E41424C4500C0
:100A500053455454494E47204D4554455231330077
:100A60003E4D45544552313320545950450053456D
:100A70005454494E47204D455445523133003E436E
:100A8000555252454E54204D415800005345545440
:100A9000494E47204D455445523133003E55204D77
:100AA0004158000053455454494E47204D45544544
:100AB000523134003E4D45544552313420454E416B
:100AC000424C450053455454494E47204D455445EA
:100AD000523134003E4D4554455231342054595022
:100AE000450053455454494E47204D4554455231D5
:100AF00034003E43555252454E54204D415800005B
:100B000053455454494E47204D45544552313400C5
:100B10003E55204D4158000053455454494E4720FE
:100B20004D455445523135003E4D455445523135C1
:100B300020454E41424C450053455454494E4720B0
:100B40004D455445523135003E4D455445523135A1
:100B500020545950450053455454494E47204D4563
:100B60005445523135003E43555252454E54204D66
:100B70004158000053455454494E47204D45544573
:100B8000523135003E55204D4158000053455454D4
:100B9000494E47204D455445523136003E4D45544F
:100BA0004552313620454E41424C45005345545440
:100BB000494E47204D455445523136003E4D45542F
:100BC0004552313620545950450053455454494EEE
:100BD00047204D455445523136003E43555252450B
:100BE0004E54204D4158000053455454494E47201F
:100BF0004D455445523136003E55204D4158000078
:100C000053455454494E47204D45544552313700C1
:100C10003E4D45544552313720454E41424C4500EA
:100C200053455454494E47204D45544552313700A1
:100C30003E4D455445523137205459504500534597
:100C40005454494E47204D455445523137003E4398
:100C5000555252454E54204D41580000534554546E
:100C6000494E47204D455445523137003E55204DA1
:100C70004158000053455454494E47204D45544572
:100C8000523138003E4D45544552313820454E4191
:100C9000424C450053455454494E47204D45544518
:100CA000523138003E4D4554455231382054595048
:100CB000450053455454494E47204D455445523103
:100CC00038003E43555252454E54204D4158000085
:100CD00053455454494E47204D45544552313800F0
:100CE0003E55204D4158000053455454494E47202D
:100CF0004D455445523139003E4D455445523139E8
:100D000020454E41424C450053455454494E4720DE
:100D10004D455445523139003E4D455445523139C7
:100D200020545950450053455454494E47204D4591
:100D30005445523139003E43555252454E54204D90
:100D40004158000053455454494E47204D455445A1
:100D5000523139003E55204D4158000053455454FE
:100D6000494E47204D455445523230003E4D455482
:100D70004552323020454E41424C45005345545473
:100D8000494E47204D455445523230003E4D455462
:100D90004552323020545950450053455454494E21
:100DA00047204D455445523230003E43555252453E
:100DB0004E54204D4158000053455454494E47204D
:100DC0004D455445523230003E55204D41580000AB
:100DD00053455454494E47204D45544552323100F5
:100DE0003E4D45544552323120454E41424C45001E
:100DF00053455454494E47204D45544552323100D5
:100E00003E4D4554455232312054595045005345CA
:100E10005454494E47204D455445523231003E43CB
:100E2000555252454E54204D41580000534554549C
:100E3000494E47204D455445523231003E55204DD4
:100E40004158000053455454494E47204D455445A0
:100E5000523232003E4D45544552323220454E41C9
:100E6000424C450053455454494E47204D45544546
:100E7000523232003E4D4554455232322054595080
:100E8000450053455454494E47204D455445523230
:100E900032003E43555252454E54204D41580000B9
:100EA00053455454494E47204D4554455232320023
:100EB0003E55204D4158000053455454494E47205B
:100EC0004D455445523233003E4D45544552323320
:100ED00020454E41424C450053455454494E47200D
:100EE0004D455445523233003E4D45544552323300
:100EF00020545950450053455454494E47204D45C0
:100F00005445523233003E43555252454E54204DC3
:100F10004158000053455454494E47204D455445CF
:100F2000523233003E55204D415800005345545431
:100F3000494E47204D455445523234003E4D4554AC
:100F40004552323420454E41424C4500534554549D
:100F5000494E47204D455445523234003E4D45548C
:100F60004552323420545950450053455454494E4B
:100F700047204D455445523234003E435552524568
:100F80004E54204D4158000053455454494E47207B
:100F90004D455445523234003E55204D41580000D5
:100FA00053455454494E47204D455445523235001F
:100FB0003E4D45544552323520454E41424C450048
:100FC00053455454494E47204D45544552323500FF
:100FD0003E4D4554455232352054595045005345F5
:100FE0005454494E47204D455445523235003E43F6
:100FF000555252454E54204D4158000053455454CB
:10100000494E47204D455445523235003E55204DFE
:101010004158000053455454494E47204D455445CE
:10102000523236003E4D45544552323620454E41EF
:10103000424C450053455454494E47204D45544574
:10104000523236003E4D45544552323620545950A6
:10105000450053455454494E47204D45544552325E
:1010600036003E43555252454E54204D41580000E3
:1010700053455454494E47204D455445523236004D
:101080003E55204D415800003E41444452204950B5
:101090002053455256455200204144445220495065
:1010A00000002041444452204950205345525645A7
:1010B00052003E414444522049500000204D4554C6
:1010C00045523120454E41424C4500003E44495373
:1010D00041424C4500003E454E41424C4500204DAA
:1010E0004554455231205459504500003E53494D16
:1010F0004541532050003E454D4139364E003E5249
:1011000049534833343430003E5045434133303046
:1011100030004D45544552312043555252454E54AE
:101120000000496D61783D256C75284129004D45C9
:101130005445523120564F4C544147450000556D9F
:1011400061783D256C75284B56290000204D45548B
:1011500045523220454E41424C4500003E444953E1
:1011600041424C4500003E454E41424C4500204D19
:101170004554455232205459504500003E53494D84
:101180004541532050003E454D4139364E003E52B8
:1011900049534833343430003E50454341333030B6
:1011A00030004D45544552322043555252454E541D
:1011B0000000496D61783D256C75284129004D4539
:1011C0005445523220564F4C544147450000556D0E
:1011D00061783D256C75284B56290000204D4554FB
:1011E00045523320454E41424C4500003E44495350
:1011F00041424C4500003E454E41424C4500204D89
:101200004554455233205459504500003E53494DF2
:101210004541532050003E454D4139364E003E5227
:1012200049534833343430003E5045434133303025
:1012300030004D45544552332043555252454E548B
:101240000000496D61783D256C75284129004D45A8
:101250005445523320564F4C544147450000556D7C
:1012600061783D256C75284B56290000204D45546A
:1012700045523420454E41424C4500003E444953BE
:1012800041424C4500003E454E41424C4500204DF8
:101290004554455234205459504500003E53494D61
:1012A0004541532050003E454D4139364E003E5297
:1012B00049534833343430003E5045434133303095
:1012C00030004D45544552342043555252454E54FA
:1012D0000000496D61783D256C75284129004D4518
:1012E0005445523420564F4C544147450000556DEB
:1012F00061783D256C75284B56290000204D4554DA
:1013000045523520454E41424C4500003E4449532C
:1013100041424C4500003E454E41424C4500204D67
:101320004554455235205459504500003E53494DCF
:101330004541532050003E454D4139364E003E5206
:1013400049534833343430003E5045434133303004
:1013500030004D45544552352043555252454E5468
:101360000000496D61783D256C75284129004D4587
:101370005445523520564F4C544147450000556D59
:1013800061783D256C75284B56290000204D455449
:1013900045523620454E41424C4500003E4449539B
:1013A00041424C4500003E454E41424C4500204DD7
:1013B0004554455236205459504500003E53494D3E
:1013C0004541532050003E454D4139364E003E5276
:1013D00049534833343430003E5045434133303074
:1013E00030004D45544552362043555252454E54D7
:1013F0000000496D61783D256C75284129004D45F7
:101400005445523620564F4C544147450000556DC7
:1014100061783D256C75284B56290000204D4554B8
:1014200045523720454E41424C4500003E44495309
:1014300041424C4500003E454E41424C4500204D46
:101440004554455237205459504500003E53494DAC
:101450004541532050003E454D4139364E003E52E5
:1014600049534833343430003E50454341333030E3
:1014700030004D45544552372043555252454E5445
:101480000000496D61783D256C75284129004D4566
:101490005445523720564F4C544147450000556D36
:1014A00061783D256C75284B56290000204D455428
:1014B00045523820454E41424C4500003E44495378
:1014C00041424C4500003E454E41424C4500204DB6
:1014D0004554455238205459504500003E53494D1B
:1014E0004541532050003E454D4139364E003E5255
:1014F00049534833343430003E5045434133303053
:1015000030004D45544552382043555252454E54B3
:101510000000496D61783D256C75284129004D45D5
:101520005445523820564F4C544147450000556DA4
:1015300061783D256C75284B56290000204D455497
:1015400045523920454E41424C4500003E444953E6
:1015500041424C4500003E454E41424C4500204D25
:101560004554455239205459504500003E53494D89
:101570004541532050003E454D4139364E003E52C4
:1015800049534833343430003E50454341333030C2
:1015900030004D45544552392043555252454E5422
:1015A0000000496D61783D256C75284129004D4545
:1015B0005445523920564F4C544147450000556D13
:1015C00061783D256C75284B56290000204D455407
:1015D0004552313020454E41424C45003E4449532E
:1015E00041424C4500003E454E41424C4500204D95
:1015F0004554455231302054595045003E53494DD1
:101600004541532050003E454D4139364E003E5233
:1016100049534833343430003E5045434133303031
:1016200030004D4554455231302043555252454EBD
:101630005400496D61783D256C75284129004D4560
:10164000544552313020564F4C5441474500556D5A
:1016500061783D256C75284B56290000204D455476
:101660004552313120454E41424C45003E4449539C
:1016700041424C4500003E454E41424C4500204D04
:101680004554455231312054595045003E53494D3F
:101690004541532050003E454D4139364E003E52A3
:1016A00049534833343430003E50454341333030A1
:1016B00030004D4554455231312043555252454E2C
:1016C0005400496D61783D256C75284129004D45D0
:1016D000544552313120564F4C5441474500556DC9
:1016E00061783D256C75284B56290000204D4554E6
:1016F0004552313220454E41424C45003E4449530B
:1017000041424C4500003E454E41424C4500204D73
:101710004554455231322054595045003E53494DAD
:101720004541532050003E454D4139364E003E5212
:1017300049534833343430003E5045434133303010
:1017400030004D4554455231322043555252454E9A
:101750005400496D61783D256C75284129004D453F
:10176000544552313220564F4C5441474500556D37
:1017700061783D256C75284B56290000204D455455
:101780004552313320454E41424C45003E44495379
:1017900041424C4500003E454E41424C4500204DE3
:1017A0004554455231332054595045003E53494D1C
:1017B0004541532050003E454D4139364E003E5282
:1017C00049534833343430003E5045434133303080
:1017D00030004D4554455231332043555252454E09
:1017E0005400496D61783D256C75284129004D45AF
:1017F000544552313320564F4C5441474500556DA6
:1018000061783D256C75284B56290000204D4554C4
:101810004552313420454E41424C45003E444953E7
:1018200041424C4500003E454E41424C4500204D52
:101830004554455231342054595045003E53494D8A
:101840004541532050003E454D4139364E003E52F1
:1018500049534833343430003E50454341333030EF
:1018600030004D4554455231342043555252454E77
:101870005400496D61783D256C75284129004D451E
:10188000544552313420564F4C5441474500556D14
:1018900061783D256C75284B56290000204D455434
:1018A0004552313520454E41424C45003E44495356
:1018B00041424C4500003E454E41424C4500204DC2
:1018C0004554455231352054595045003E53494DF9
:1018D0004541532050003E454D4139364E003E5261
:1018E00049534833343430003E504543413330305F
:1018F00030004D4554455231352043555252454EE6
:101900005400496D61783D256C75284129004D458D
:10191000544552313520564F4C5441474500556D82
:1019200061783D256C75284B56290000204D4554A3
:101930004552313620454E41424C45003E444953C4
:1019400041424C4500003E454E41424C4500204D31
:101950004554455231362054595045003E53494D67
:101960004541532050003E454D4139364E003E52D0
:1019700049534833343430003E50454341333030CE
:1019800030004D4554455231362043555252454E54
:101990005400496D61783D256C75284129004D45FD
:1019A000544552313620564F4C5441474500556DF1
:1019B00061783D256C75284B56290000204D455413
:1019C0004552313720454E41424C45003E44495333
:1019D00041424C4500003E454E41424C4500204DA1
:1019E0004554455231372054595045003E53494DD6
:1019F0004541532050003E454D4139364E003E5240
:101A000049534833343430003E504543413330303D
:101A100030004D4554455231372043555252454EC2
:101A20005400496D61783D256C75284129004D456C
:101A3000544552313720564F4C5441474500556D5F
:101A400061783D256C75284B56290000204D455482
:101A50004552313820454E41424C45003E444953A1
:101A600041424C4500003E454E41424C4500204D10
:101A70004554455231382054595045003E53494D44
:101A80004541532050003E454D4139364E003E52AF
:101A900049534833343430003E50454341333030AD
:101AA00030004D4554455231382043555252454E31
:101AB0005400496D61783D256C75284129004D45DC
:101AC000544552313820564F4C5441474500556DCE
:101AD00061783D256C75284B56290000204D4554F2
:101AE0004552313920454E41424C45003E44495310
:101AF00041424C4500003E454E41424C4500204D80
:101B00004554455231392054595045003E53494DB2
:101B10004541532050003E454D4139364E003E521E
:101B200049534833343430003E504543413330301C
:101B300030004D4554455231392043555252454E9F
:101B40005400496D61783D256C75284129004D454B
:101B5000544552313920564F4C5441474500556D3C
:101B600061783D256C75284B56290000204D455461
:101B70004552323020454E41424C45003E44495387
:101B800041424C4500003E454E41424C4500204DEF
:101B90004554455232302054595045003E53494D2A
:101BA0004541532050003E454D4139364E003E528E
:101BB00049534833343430003E504543413330308C
:101BC00030004D4554455232302043555252454E17
:101BD0005400496D61783D256C75284129004D45BB
:101BE000544552323020564F4C5441474500556DB4
:101BF00061783D256C75284B56290000204D4554D1
:101C00004552323120454E41424C45003E444953F5
:101C100041424C4500003E454E41424C4500204D5E
:101C20004554455232312054595045003E53494D98
:101C30004541532050003E454D4139364E003E52FD
:101C400049534833343430003E50454341333030FB
:101C500030004D4554455232312043555252454E85
:101C60005400496D61783D256C75284129004D452A
:101C7000544552323120564F4C5441474500556D22
:101C800061783D256C75284B56290000204D455440
:101C90004552323220454E41424C45003E44495364
:101CA00041424C4500003E454E41424C4500204DCE
:101CB0004554455232322054595045003E53494D07
:101CC0004541532050003E454D4139364E003E526D
:101CD00049534833343430003E504543413330306B
:101CE00030004D4554455232322043555252454EF4
:101CF0005400496D61783D256C75284129004D459A
:101D0000544552323220564F4C5441474500556D90
:101D100061783D256C75284B56290000204D4554AF
:101D20004552323320454E41424C45003E444953D2
:101D300041424C4500003E454E41424C4500204D3D
:101D40004554455232332054595045003E53494D75
:101D50004541532050003E454D4139364E003E52DC
:101D600049534833343430003E50454341333030DA
:101D700030004D4554455232332043555252454E62
:101D80005400496D61783D256C75284129004D4509
:101D9000544552323320564F4C5441474500556DFF
:101DA00061783D256C75284B56290000204D45541F
:101DB0004552323420454E41424C45003E44495341
:101DC00041424C4500003E454E41424C4500204DAD
:101DD0004554455232342054595045003E53494DE4
:101DE0004541532050003E454D4139364E003E524C
:101DF00049534833343430003E504543413330304A
:101E000030004D4554455232342043555252454ED0
:101E10005400496D61783D256C75284129004D4578
:101E2000544552323420564F4C5441474500556D6D
:101E300061783D256C75284B56290000204D45548E
:101E40004552323520454E41424C45003E444953AF
:101E500041424C4500003E454E41424C4500204D1C
:101E60004554455232352054595045003E53494D52
:101E70004541532050003E454D4139364E003E52BB
:101E800049534833343430003E50454341333030B9
:101E900030004D4554455232352043555252454E3F
:101EA0005400496D61783D256C75284129004D45E8
:101EB000544552323520564F4C5441474500556DDC
:101EC00061783D256C75284B56290000204D4554FE
:101ED0004552323620454E41424C45003E4449531E
:101EE00041424C4500003E454E41424C4500204D8C
:101EF0004554455232362054595045003E53494DC1
:101F00004541532050003E454D4139364E003E522A
:101F100049534833343430003E5045434133303028
:101F200030004D4554455232362043555252454EAD
:101F30005400496D61783D256C75284129004D4557
:101F4000544552323420564F4C5441474500556D4C
:101F500061783D256C75284B562900004144445258
:101F60002053455256455200414444522053455255
:101F70005645520041444452205345525645520062
:101F8000414444522053455256455200504F5254FA
:101F90003A256C750000504F52543A256C7500007C
:101FA000504F52543A256C750000504F52543A2508
:101FB0006C750000504F52543A256C750000534523
:101FC0005454494E472054494D4500002530326451
:101FD0003A253032642D253032642F253032642F7B
:101FE00032302564000053455454494E472054492B
:101FF0004D450000253032643A253032642D2530BD
:1020000032642F253032642F32302564000053456E
:102010005454494E472054494D4500002530326400
:102020003A253032642D253032642F253032642F2A
:1020300032302564000053455454494E47205449DA
:102040004D450000253032643A253032642D25306C
:1020500032642F253032642F32302564000053451E
:102060005454494E472054494D45000025303264B0
:102070003A253032642D253032642F253032642FDA
:102080003230256400004C49535420535441545578
:10209000530053442043415244204552524F520072
:1020A00053442043415244204F4B00004C4F2025C5
:1020B0006C7520414C41524D00004C4F20256C75F1
:1020C000204E4F524D414C000701F76B928280B277
:1020D00002D0010EF76F928080B002D0020EF76F2F
:1020E000928680B602D0030EF76F928480B402D03D
:1020F000040EF76FF7C701F0000112000801055147
:102100000703F3CF01F0F4CF00F00803F3500026EB
:1021100006510703F3500020026E00011200080E62
:10212000016E050E006E002EFED78B969496060E5D
:10213000006E002EFED70701FF378B98D8B0948829
:10214000D8A09498948682A6FED7012E01D002D002
:102150000001E7D7050E006E002EFED78B969496F1
:1021600000009488060E006E002EFED7060E006E4C
:10217000002EFED7948682A6FED7016A060E006E58
:10218000002EFED782B801808B9694968B989498F7
:1021900000011200FEC7FFF70801006B0701FF51A5
:1021A000090807E20A0EFF5F100E0801002705D09C
:1021B0000701FF510801002701D0F0D700C801F046
:1021C000000112000701FD9F3F0EFB179488050ECA
:1021D000006E002EFED79486060E006E002EFED7EF
:1021E0008B989498050E006E002EFED78B969496D1
:1021F000D00EFF6F000193DF0701FF6B00018FDF3F
:10220000FDC7FEF7C7DF01C0FEF701C0FFF787DF9C
:10221000FCC7FEF7BFDF01C0FEF701C0FFF77FDF9D
:10222000FBC7FEF7B7DF01C0FEF701C0FFF777DF9E
:10223000FAC7FEF7AFDF01C0FEF701C0FFF76FDF9F
:10224000F7C7FEF7A7DF01C0FEF701C0FFF767DFA2
:10225000F8C7FEF79FDF01C0FEF701C0FFF75FDFA1
:10226000F9C7FEF797DF01C0FEF701C0FFF757DFA0
:10227000800E0701FF6F000152DF949800009486E2
:1022800082A6FED7050E006E002EFED700D00000FD
:102290009488050E006E002EFED712000701F7513C
:1022A000070B006EF731016E013201321F0E01166D
:1022B0000150F825E96E000EF921EA6EEFCF01F02A
:1022C000002A01D00132002EFDD700011200FCDEF1
:1022D000010E015CFC0FD8B0EAEF4EF0040FF4EFF2
:1022E00050F002015151000A0001D8B4EED3040AA3
:1022F000D8B4F1D31A0AD8B4F4D3010AD8B4F7D3B6
:10230000890AD8B4FAD35C0AD8B487EF15F0CF0A9B
:10231000D8B491EF15F0250AD8B497EF15F0010A5B
:10232000D8B49DEF15F0B90AD8B4A3EF15F0540A4C
:10233000D8B4ADEF15F0CA0AD8B4B7EF15F0240A37
:10234000D8B4BDEF15F0010AD8B4C3EF15F0B90A3F
:10235000D8B4C9EF15F0540AD8B4D3EF15F0C90AB0
:10236000D8B4DDEF15F0230AD8B4E3EF15F0010A75
:10237000D8B4E9EF15F0B90AD8B4EFEF15F04C0A6C
:10238000D8B4F9EF15F0D80AD8B403EF16F02E0A36
:10239000D8B409EF16F0010AD8B40FEF16F0B90A55
:1023A000D8B415EF16F04C0AD8B41FEF16F0DB0ABC
:1023B000D8B429EF16F0210AD8B42FEF16F0010A8D
:1023C000D8B435EF16F0890AD8B43BEF16F0740A8A
:1023D000D8B445EF16F0DE0AD8B44FEF16F0200A55
:1023E000D8B455EF16F0010AD8B45BEF16F0890A9D
:1023F000D8B461EF16F0740AD8B46BEF16F0DD0AAA
:10240000D8B475EF16F0270AD8B47BEF16F0010A9E
:10241000D8B481EF16F0890AD8B487EF16F07C0A99
:10242000D8B491EF16F0D40AD8B49BEF16F0220A74
:10243000D8B4A1EF16F0010AD8B4A7EF16F0890AB4
:10244000D8B4ADEF16F07C0AD8B4B7EF16F0D70ABF
:10245000D8B4C1EF16F03D0AD8B4C7EF16F0010AA0
:10246000D8B4CDEF16F0990AD8B4D3EF16F0740AA9
:10247000D8B4DDEF16F0D20AD8B4E7EF16F03C0A74
:10248000D8B4EDEF16F0010AD8B4F3EF16F0990ABC
:10249000D8B4F9EF16F0740AD8B403EF17F0D10AE4
:1024A000D8B40DEF17F03B0AD8B413EF17F0010AB8
:1024B000D8B419EF17F0990AD8B41FEF17F04C0AE7
:1024C000D8B429EF17F0F00AD8B433EF17F0260A82
:1024D000D8B439EF17F0010AD8B43FEF17F0990AD2
:1024E000D8B445EF17F04C0AD8B44FEF17F0F30A01
:1024F000D8B459EF17F0290AD8B45FEF17F0010AE2
:10250000D8B465EF17F0890AD8B46BEF17F0540A06
:10251000D8B475EF17F0F60AD8B47FEF17F0280A91
:10252000D8B485EF17F0010AD8B48BEF17F0890AF9
:10253000D8B491EF17F0540AD8B49BEF17F0F50A0E
:10254000D8B4A5EF17F02F0AD8B4ABEF17F0010AF3
:10255000D8B4B1EF17F0890AD8B4B7EF17F05C0A16
:10256000D8B4C1EF17F0FC0AD8B4CBEF17F02A0AA1
:10257000D8B4D1EF17F0010AD8B4D7EF17F0890A11
:10258000D8B4DDEF17F05C0AD8B4E7EF17F0FF0A14
:10259000D8B4F1EF17F0550AD8B4F7EF17F0010AE5
:1025A000D8B4FDEF17F0F90AD8B403EF18F0540AC5
:1025B000D8B40DEF18F0FA0AD8B417EF18F0540A8F
:1025C000D8B41DEF18F0010AD8B423EF18F0F90AB7
:1025D000D8B429EF18F0540AD8B433EF18F0F90A38
:1025E000D8B43DEF18F0530AD8B443EF18F0010AFD
:1025F000D8B449EF18F0F90AD8B44FEF18F04C0AE4
:10260000D8B459EF18F0E80AD8B463EF18F05E0AAE
:10261000D8B469EF18F0010AD8B46FEF18F0F90ACE
:10262000D8B475EF18F04C0AD8B47FEF18F0EB0A65
:10263000D8B489EF18F0510AD8B48FEF18F0010A16
:10264000D8B495EF18F0890AD8B49BEF18F0340A83
:10265000D8B4A5EF18F0EE0AD8B4AFEF18F0500ACE
:10266000D8B4B5EF18F0010AD8B4BBEF18F0890A56
:10267000D8B4C1EF18F0340AD8B4CBEF18F0ED0A93
:10268000D8B4D5EF18F0570AD8B4DBEF18F0010A28
:10269000D8B4E1EF18F0890AD8B4E7EF18F03C0A93
:1026A000D8B4F1EF18F0E40AD8B4FBEF18F0520AEE
:1026B000D8B401EF19F0010AD8B407EF19F0890A6C
:1026C000D8B40DEF19F03C0AD8B417EF19F0E70AA7
:1026D000D8B421EF19F04D0AD8B427EF19F0010A48
:1026E000D8B42DEF19F0990AD8B433EF19F0340AA1
:1026F000D8B43DEF19F0FE0AD8B447EF19F0840AB8
:10270000D8B44DEF19F00E0AD8B48FEF19F0010AC2
:10271000D8B495EF19F0030AD8B49BEF19F0010A69
:10272000D8B4A1EF19F00C0AD8B4FCEF19F00B0AD9
:10273000D8B46DEF1AF0010AD8B473EF1AF0030A97
:10274000D8B479EF1AF0010AD8B47FEF1AF01F0A53
:10275000D8B485EF1AF0930AD8B416EF1BF0910A9B
:10276000D8B41CEF1BF0030AD8B432EF1BF0020AF6
:10277000D8B448EF1BF0070AD8B45EEF1BF0010A8B
:10278000D8B474EF1BF0C70AD8B48AEF1BF0010A63
:10279000D8B4ABEF1BF0C40AD8B4C7EF1BF05C0A87
:1027A000D8B406EF1CF09F0AD8B445EF1CF0010A1C
:1027B000D8B467EF1CF0CC0AD8B483EF1CF0540AED
:1027C000D8B4C2EF1CF09B0AD8B401EF1DF0010A87
:1027D000D8B423EF1DF0CC0AD8B43FEF1DF0540A53
:1027E000D8B47EEF1DF0970AD8B4BDEF1DF0010AF2
:1027F000D8B4DFEF1DF0C40AD8B4FBEF1DF04C0ACB
:10280000D8B43AEF1EF08B0AD8B479EF1EF0010A63
:10281000D8B49BEF1EF0C40AD8B4B7EF1EF04C0A30
:10282000D8B4F6EF1EF08F0AD8B435EF1FF0010AC6
:10283000D8B457EF1FF0FC0AD8B473EF1FF0740A36
:10284000D8B4B2EF1FF08B0AD8B4F1EF1FF0010A31
:10285000D8B413EF20F0FC0AD8B42FEF20F0740A9C
:10286000D8B46EEF20F0B70AD8B4ADEF20F0010A6B
:10287000D8B4CFEF20F0C40AD8B4EBEF20F07C0A34
:10288000D8B42AEF21F0BB0AD8B469EF21F0010ACD
:10289000D8B48BEF21F0C40AD8B4A7EF21F07C0A9A
:1028A000D8B4E6EF21F0BF0AD8B425EF22F0010A30
:1028B000D8B447EF22F0CC0AD8B463EF22F0740A00
:1028C000D8B4A2EF22F0BB0AD8B4E1EF22F0010A9B
:1028D000D8B403EF23F0CC0AD8B41FEF23F0740A66
:1028E000D8B45EEF23F0B70AD8B49DEF23F0010A05
:1028F000D8B4BFEF23F0C40AD8B4DBEF23F04C0AFE
:10290000D8B41AEF24F08B0AD8B459EF24F0010A96
:10291000D8B47BEF24F0C40AD8B497EF24F04C0A63
:10292000D8B4D6EF24F08F0AD8B415EF25F0010AF9
:10293000D8B437EF25F0DC0AD8B453EF25F0540AA9
:10294000D8B492EF25F08B0AD8B4D1EF25F0010A64
:10295000D8B4F3EF25F0DC0AD8B40FEF26F0540A10
:10296000D8B44EEF26F0970AD8B48DEF26F0010ABE
:10297000D8B4AFEF26F0C40AD8B4CBEF26F05C0A87
:10298000D8B40AEF27F09B0AD8B449EF27F0010A20
:10299000D8B46BEF27F0C40AD8B487EF27F05C0AED
:1029A000D8B4C6EF27F09F0AD8B405EF28F0010A83
:1029B000D8B427EF28F0CC0AD8B443EF28F0540A53
:1029C000D8B482EF28F09B0AD8B4C1EF28F0010AEE
:1029D000D8B4E3EF28F0CC0AD8B4FFEF28F0540ABB
:1029E000D8B43DEF29F0970AD8B47CEF29F0010A5A
:1029F000D8B49EEF29F0C40AD8B4BAEF29F04C0A33
:102A0000D8B4F9EF29F08B0AD8B438EF2AF0010ACC
:102A1000D8B45AEF2AF0C40AD8B476EF2AF04C0A98
:102A2000D8B4B5EF2AF08F0AD8B4F3EF2AF0010A30
:102A3000D8B414EF2BF0BC0AD8B42FEF2BF0340A23
:102A4000D8B46DEF2BF08B0AD8B4ABEF2BF0010AA2
:102A5000D8B4CCEF2BF0BC0AD8B4E7EF2BF0340A93
:102A6000D8B425EF2CF0770AD8B463EF2CF0010A24
:102A7000D8B484EF2CF0440AD8B49FEF2CF03C0A71
:102A8000D8B4DDEF2CF07B0AD8B41BEF2DF0010A8F
:102A9000D8B43CEF2DF0440AD8B457EF2DF03C0ADF
:102AA000D8B495EF2DF07F0AD8B4D3EF2DF0010AFA
:102AB000D8B4F4EF2DF04C0AD8B40FEF2EF0340A4E
:102AC000D8B44DEF2EF08AEF2EF0040E0201516FB4
:102AD00000018AEF2EF01E0E0201516F00018AEFF5
:102AE0002EF0520E0201516F00018AEF2EF0530EAC
:102AF0000201516F00018AEF2EF05BC2FEF05AC254
:102B0000FDF0970E0201516F00018AEF2EF05DC2B9
:102B1000FEF05CC2FDF0CB0E0201516F00018AEFA6
:102B20002EF0200E0201516F00018AEF2EF0540E9C
:102B30000201516F00018AEF2EF0550E0201516F14
:102B400000018AEF2EF061C2FEF060C2FDF0990E26
:102B50000201516F00018AEF2EF063C2FEF062C2E3
:102B6000FDF0CD0E0201516F00018AEF2EF0220E12
:102B70000201516F00018AEF2EF0560E0201516FD3
:102B800000018AEF2EF0570E0201516F00018AEF0B
:102B90002EF067C2FEF066C2FDF09B0E0201516F7F
:102BA00000018AEF2EF069C2FEF068C2FDF0CF0E80
:102BB0000201516F00018AEF2EF0240E0201516FC5
:102BC00000018AEF2EF0580E0201516F00018AEFCA
:102BD0002EF0590E0201516F00018AEF2EF06DC2E6
:102BE000FEF06CC2FDF09D0E0201516F00018AEFF4
:102BF0002EF06FC2FEF06EC2FDF0D10E0201516FD9
:102C000000018AEF2EF0260E0201516F00018AEFBB
:102C10002EF05A0E0201516F00018AEF2EF05B0E6A
:102C20000201516F00018AEF2EF073C2FEF072C2F2
:102C3000FDF09F0E0201516F00018AEF2EF075C268
:102C4000FEF074C2FDF0D30E0201516F00018AEF55
:102C50002EF0280E0201516F00018AEF2EF05C0E5B
:102C60000201516F00018AEF2EF05D0E0201516FDB
:102C700000018AEF2EF079C2FEF078C2FDF0A10EBD
:102C80000201516F00018AEF2EF07BC2FEF07AC282
:102C9000FDF0D50E0201516F00018AEF2EF02A0ED1
:102CA0000201516F00018AEF2EF05E0E0201516F9A
:102CB00000018AEF2EF05F0E0201516F00018AEFD2
:102CC0002EF07FC2FEF07EC2FDF0A30E0201516F16
:102CD00000018AEF2EF081C2FEF080C2FDF0D70E17
:102CE0000201516F00018AEF2EF02C0E0201516F8C
:102CF00000018AEF2EF0600E0201516F00018AEF91
:102D00002EF0610E0201516F00018AEF2EF085C294
:102D1000FEF084C2FDF0A50E0201516F00018AEFA2
:102D20002EF087C2FEF086C2FDF0D90E0201516F6F
:102D300000018AEF2EF02E0E0201516F00018AEF82
:102D40002EF0620E0201516F00018AEF2EF0630E29
:102D50000201516F00018AEF2EF08BC2FEF08AC291
:102D6000FDF0A70E0201516F00018AEF2EF08DC217
:102D7000FEF08CC2FDF0DB0E0201516F00018AEF04
:102D80002EF0300E0201516F00018AEF2EF0640E1A
:102D90000201516F00018AEF2EF0650E0201516FA2
:102DA00000018AEF2EF091C2FEF090C2FDF0A90E54
:102DB0000201516F00018AEF2EF093C2FEF092C221
:102DC000FDF0DD0E0201516F00018AEF2EF0320E90
:102DD0000201516F00018AEF2EF0660E0201516F61
:102DE00000018AEF2EF0670E0201516F00018AEF99
:102DF0002EF097C2FEF096C2FDF0AB0E0201516FAD
:102E000000018AEF2EF099C2FEF098C2FDF0DF0EAD
:102E10000201516F00018AEF2EF0340E0201516F52
:102E200000018AEF2EF0680E0201516F00018AEF57
:102E30002EF0690E0201516F00018AEF2EF09DC243
:102E4000FEF09CC2FDF0AD0E0201516F00018AEF51
:102E50002EF09FC2FEF09EC2FDF0E10E0201516F06
:102E600000018AEF2EF0360E0201516F00018AEF49
:102E70002EF06A0E0201516F00018AEF2EF06B0EE8
:102E80000201516F00018AEF2EF0A3C2FEF0A2C230
:102E9000FDF0AF0E0201516F00018AEF2EF0A5C2C6
:102EA000FEF0A4C2FDF0E30E0201516F00018AEFB3
:102EB0002EF0380E0201516F00018AEF2EF06C0ED9
:102EC0000201516F00018AEF2EF06D0E0201516F69
:102ED00000018AEF2EF0A9C2FEF0A8C2FDF0B10EEB
:102EE0000201516F00018AEF2EF0ABC2FEF0AAC2C0
:102EF000FDF0E50E0201516F00018AEF2EF03A0E4F
:102F00000201516F00018AEF2EF06E0E0201516F27
:102F100000018AEF2EF06F0E0201516F00018AEF5F
:102F20002EF0AFC2FEF0AEC2FDF0B30E0201516F43
:102F300000018AEF2EF0B1C2FEF0B0C2FDF0E70E44
:102F40000201516F00018AEF2EF03C0E0201516F19
:102F500000018AEF2EF0700E0201516F00018AEF1E
:102F60002EF0710E0201516F00018AEF2EF0B5C2F2
:102F7000FEF0B4C2FDF0B50E0201516F00018AEF00
:102F80002EF0B7C2FEF0B6C2FDF0E90E0201516F9D
:102F900000018AEF2EF03E0E0201516F00018AEF10
:102FA0002EF0720E0201516F00018AEF2EF0730EA7
:102FB0000201516F00018AEF2EF0BBC2FEF0BAC2CF
:102FC000FDF0B70E0201516F00018AEF2EF0BDC275
:102FD000FEF0BCC2FDF0EB0E0201516F00018AEF62
:102FE0002EF0400E0201516F00018AEF2EF0740E98
:102FF0000201516F00018AEF2EF0750E0201516F30
:1030000000018AEF2EF0C1C2FEF0C0C2FDF0B90E81
:103010000201516F00018AEF2EF0C3C2FEF0C2C25E
:10302000FDF0ED0E0201516F00018AEF2EF0420E0D
:103030000201516F00018AEF2EF0760E0201516FEE
:1030400000018AEF2EF0770E0201516F00018AEF26
:103050002EF0C7C2FEF0C6C2FDF0BB0E0201516FDA
:1030600000018AEF2EF0C9C2FEF0C8C2FDF0EF0EDB
:103070000201516F00018AEF2EF0440E0201516FE0
:1030800000018AEF2EF0780E0201516F00018AEFE5
:103090002EF0790E0201516F00018AEF2EF0CDC2A1
:1030A000FEF0CCC2FDF0BD0E0201516F00018AEFAF
:1030B0002EF0CFC2FEF0CEC2FDF0F10E0201516F34
:1030C00000018AEF2EF0460E0201516F00018AEFD7
:1030D0002EF07A0E0201516F00018AEF2EF07B0E66
:1030E0000201516F00018AEF2EF0D3C2FEF0D2C26E
:1030F000FDF0BF0E0201516F00018AEF2EF0D5C224
:10310000FEF0D4C2FDF0F30E0201516F00018AEF10
:103110002EF0480E0201516F00018AEF2EF07C0E56
:103120000201516F00018AEF2EF07D0E0201516FF6
:1031300000018AEF2EF0D9C2FEF0D8C2FDF0C10E18
:103140000201516F00018AEF2EF0DBC2FEF0DAC2FD
:10315000FDF0F50E0201516F00018AEF2EF04A0ECC
:103160000201516F00018AEF2EF07E0E0201516FB5
:1031700000018AEF2EF07F0E0201516F00018AEFED
:103180002EF0DFC2FEF0DEC2FDF0C30E0201516F71
:1031900000018AEF2EF0E1C2FEF0E0C2FDF0F70E72
:1031A0000201516F00018AEF2EF04C0E0201516FA7
:1031B00000018AEF2EF0800E0201516F00018AEFAC
:1031C0002EF0810E0201516F00018AEF2EF0E5C250
:1031D000FEF0E4C2FDF0C50E0201516F00018AEF5E
:1031E0002EF0E7C2FEF0E6C2FDF0F90E0201516FCB
:1031F00000018AEF2EF04E0E0201516F00018AEF9E
:103200002EF0820E0201516F00018AEF2EF0830E24
:103210000201516F00018AEF2EF0EBC2FEF0EAC20C
:10322000FDF0C70E0201516F00018AEF2EF0EDC2D2
:10323000FEF0ECC2FDF0FB0E0201516F00018AEFBF
:103240002EF0500E0201516F00018AEF2EF0840E15
:103250000201516F00018AEF2EF0850E0201516FBD
:1032600000018AEF2EF0F1C2FEF0F0C2FDF0C90EAF
:103270000201516F00018AEF2EF0F3C2FEF0F2C29C
:10328000FDF0FD0E0201516F00018AEF2EF0860E57
:103290000201516F00018AEF2EF0F2CFF7F7F29E94
:1032A000AA6A400EA96EA69CA69EA680A8500701F9
:1032B000F7BFF28E0001F46FF2CFF7F7F29EAA6A21
:1032C000410EA96EA69CA69EA680A8500701F7BF36
:1032D000F28E0001F56FF2CFF7F7F29EAA6A420E66
:1032E000A96EA69CA69EA680A8500701F7BFF28EE5
:1032F0000001F66FF2CFF7F7F29EAA6A430EA96EAD
:10330000A69CA69EA680A8500701F7BFF28E0001DA
:10331000F76F880E0201516F00018AEF2EF0890EBF
:103320000201516F00018AEF2EF08A0E0201516FE7
:1033300000018AEF2EF08B0E0201516F00018AEF1F
:103340002EF0F250006EF29EAA6A400EA96EF4C0F2
:10335000A8FFA69CA69EA6840F01550EA76EAA0ED6
:10336000A76EA682A6B2FED7A6940050F212F2CFA4
:1033700000F0F29EAA6A410EA96EF5C0A8FFA69CB5
:10338000A69EA684550EA76EAA0EA76EA682A6B20A
:10339000FED7A6940050F212F2CF00F0F29EAA6A75
:1033A000420EA96EF6C0A8FFA69CA69EA684550E46
:1033B000A76EAA0EA76EA682A6B2FED7A69400504C
:1033C000F212F2CF00F0F29EAA6A430EA96EF7C085
:1033D000A8FFA69CA69EA684550EA76EAA0EA76E51
:1033E000A682A6B2FED7A6940050F212860E020163
:1033F000516F00018AEF2EF0F2CFF7F7F29EAA6A22
:10340000440EA96EA69CA69EA680A8500701F7BFF1
:10341000F28E0001F46FF2CFF7F7F29EAA6A450E22
:10342000A96EA69CA69EA680A8500701F7BFF28EA3
:103430000001F56FF2CFF7F7F29EAA6A460EA96E69
:10344000A69CA69EA680A8500701F7BFF28E000199
:10345000F66FF2CFF7F7F29EAA6A470EA96EA69C06
:10346000A69EA680A8500701F7BFF28E0001F76F55
:10347000F2CFF7F7F29EAA6A480EA96EA69CA69E06
:10348000A680A8500701F7BFF28EF86FF2CFF9F7C8
:10349000F29EAA6A490EA96EA69CA69EA680A85076
:1034A000F9BFF28EFB6F0801066BFBC705F8010E32
:1034B000086F076B00017EEC10F002C003F00150B2
:1034C0000701F8250001FB6F000E0320FC6F8C0E36
:1034D0000201516F00018AEF2EF08D0E0201516F33
:1034E00000018AEF2EF08E0E0201516F00018AEF6B
:1034F0002EF08F0E0201516F00018AEF2EF0900E18
:103500000201516F00018AEF2EF0F250006EF29E20
:10351000AA6A440EA96EF4C0A8FFA69CA69EA68423
:103520000F01550EA76EAA0EA76EA682A6B2FED7F1
:10353000A6940050F212F2CF00F0F29EAA6A450E55
:10354000A96EF5C0A8FFA69CA69EA684550EA76EE0
:10355000AA0EA76EA682A6B2FED7A6940050F212BB
:10356000F2CF00F0F29EAA6A460EA96EF6C0A8FF3E
:10357000A69CA69EA684550EA76EAA0EA76EA6822E
:10358000A6B2FED7A6940050F212F2CF00F0F29E3F
:10359000AA6A470EA96EF7C0A8FFA69CA69EA6849D
:1035A000550EA76EAA0EA76EA682A6B2FED7A69447
:1035B0000050F2120001FB510701F76FF86BF25057
:1035C000006EF29EAA6A480EA96EF7C7A8FFA69CD5
:1035D000A69EA6840F01550EA76EAA0EA76EA68200
:1035E000A6B2FED7A6940050F212FCC0F7F707016E
:1035F000F86BF86BF250006EF29EAA6A490EA96E43
:10360000F7C7A8FFA69CA69EA6840F01550EA76E1D
:10361000AA0EA76EA682A6B2FED7A6940050F212FA
:10362000870E0201516F00018AEF2EF0920E020107
:10363000516F00018AEF2EF0E9C0F7F7EAC0F8F702
:10364000EBC0F9F70701FA6BECC0FBF7EDC0FCF734
:10365000FD6B0001E2EC10F0910E0201516F0001D0
:103660008AEF2EF0E9C0F7F7EAC0F8F7EBC0F9F7F8
:103670000701FA6BECC0FBF7EDC0FCF7FD6B000136
:10368000E2EC10F0930E0201516F00018AEF2EF070
:10369000E9C0F7F7EAC0F8F7EBC0F9F70701FA6BF2
:1036A000ECC0FBF7EDC0FCF7FD6B0001E2EC10F0A5
:1036B000940E0201516F00018AEF2EF0E9C0F7F776
:1036C000EAC0F8F7EBC0F9F70701FA6BECC0FBF7BB
:1036D000EDC0FCF7FD6B0001E2EC10F0950E02016D
:1036E000516F00018AEF2EF0E9C0F7F7EAC0F8F752
:1036F000EBC0F9F70701FA6BECC0FBF7EDC0FCF784
:10370000FD6B0001E2EC10F0030E0201516F0001AD
:103710008AEF2EF0000E020158B1010E0701F76F7B
:10372000F250006EF29EAA6AA96AF7C7A8FFA69C8B
:10373000A69EA6840F01550EA76EAA0EA76EA6829E
:10374000A6B2FED7A6940050F2121E0E0201516FCF
:1037500000018AEF2EF0F250006EF29EAA6A010E6E
:10376000A96E59C2A8FFA69CA69EA6840F01550E5D
:10377000A76EAA0EA76EA682A6B2FED7A694005088
:10378000F2121F0E0201516F00018AEF2EF0FEC0EF
:103790005BF2FDC05AF2FD510701F76FF86BF25072
:1037A000006EF29EAA6A200EA96EF7C7A8FFA69C1B
:1037B000A69EA6840F01550EA76EAA0EA76EA6821E
:1037C000A6B2FED7A6940050F212FEC0F7F707018A
:1037D000F86BF86BF250006EF29EAA6A210EA96E89
:1037E000F7C7A8FFA69CA69EA6840F01550EA76E3C
:1037F000AA0EA76EA682A6B2FED7A6940050F21219
:10380000960E0201516F00018AEF2EF0FEC05DF2AC
:10381000FDC05CF2FD510701F76FF86BF250006ECE
:10382000F29EAA6A5A0EA96EF7C7A8FFA69CA69E8A
:10383000A6840F01550EA76EAA0EA76EA682A6B289
:10384000FED7A6940050F212FEC0F7F70701F86BFE
:10385000F86BF250006EF29EAA6A5B0EA96EF7C773
:10386000A8FFA69CA69EA6840F01550EA76EAA0EC1
:10387000A76EA682A6B2FED7A6940050F212CA0E78
:103880000201516F00018AEF2EF0000E02015EB1BD
:10389000010E0701F76FF250006EF29EAA6A020E47
:1038A000A96EF7C7A8FFA69CA69EA6840F01550E79
:1038B000A76EAA0EA76EA682A6B2FED7A694005047
:1038C000F212200E0201516F00018AEF2EF0F25029
:1038D000006EF29EAA6A030EA96E5FC2A8FFA69CA4
:1038E000A69EA6840F01550EA76EAA0EA76EA682ED
:1038F000A6B2FED7A6940050F212210E0201516F1B
:1039000000018AEF2EF0FEC061F2FDC060F2FD51B1
:103910000701F76FF86BF250006EF29EAA6A220E52
:10392000A96EF7C7A8FFA69CA69EA6840F01550EF8
:10393000A76EAA0EA76EA682A6B2FED7A6940050C6
:10394000F212FEC0F7F70701F86BF86BF250006E49
:10395000F29EAA6A230EA96EF7C7A8FFA69CA69E90
:10396000A6840F01550EA76EAA0EA76EA682A6B258
:10397000FED7A6940050F212980E0201516F00017A
:103980008AEF2EF0FEC063F2FDC062F2FD51070126
:10399000F76FF86BF250006EF29EAA6A5C0EA96E89
:1039A000F7C7A8FFA69CA69EA6840F01550EA76E7A
:1039B000AA0EA76EA682A6B2FED7A6940050F21257
:1039C000FEC0F7F70701F86BF86BF250006EF29E3D
:1039D000AA6A5D0EA96EF7C7A8FFA69CA69EA6843C
:1039E0000F01550EA76EAA0EA76EA682A6B2FED72D
:1039F000A6940050F212CC0E0201516F00018AEF22
:103A00002EF0000E020164B1010E0701F76FF250B3
:103A1000006EF29EAA6A040EA96EF7C7A8FFA69CC4
:103A2000A69EA6840F01550EA76EAA0EA76EA682AB
:103A3000A6B2FED7A6940050F212220E0201516FD8
:103A400000018AEF2EF0F250006EF29EAA6A050E77
:103A5000A96E65C2A8FFA69CA69EA6840F01550E5E
:103A6000A76EAA0EA76EA682A6B2FED7A694005095
:103A7000F212230E0201516F00018AEF2EF0FEC0F8
:103A800067F2FDC066F2FD510701F76FF86BF25067
:103A9000006EF29EAA6A240EA96EF7C7A8FFA69C24
:103AA000A69EA6840F01550EA76EAA0EA76EA6822B
:103AB000A6B2FED7A6940050F212FEC0F7F7070197
:103AC000F86BF86BF250006EF29EAA6A250EA96E92
:103AD000F7C7A8FFA69CA69EA6840F01550EA76E49
:103AE000AA0EA76EA682A6B2FED7A6940050F21226
:103AF0009A0E0201516F00018AEF2EF0FEC069F2AA
:103B0000FDC068F2FD510701F76FF86BF250006ECF
:103B1000F29EAA6A5E0EA96EF7C7A8FFA69CA69E93
:103B2000A6840F01550EA76EAA0EA76EA682A6B296
:103B3000FED7A6940050F212FEC0F7F70701F86B0B
:103B4000F86BF250006EF29EAA6A5F0EA96EF7C77C
:103B5000A8FFA69CA69EA6840F01550EA76EAA0ECE
:103B6000A76EA682A6B2FED7A6940050F212CE0E81
:103B70000201516F00018AEF2EF0000E02016AB1BE
:103B8000010E0701F76FF250006EF29EAA6A060E50
:103B9000A96EF7C7A8FFA69CA69EA6840F01550E86
:103BA000A76EAA0EA76EA682A6B2FED7A694005054
:103BB000F212240E0201516F00018AEF2EF0F25032
:103BC000006EF29EAA6A070EA96E6BC2A8FFA69CA1
:103BD000A69EA6840F01550EA76EAA0EA76EA682FA
:103BE000A6B2FED7A6940050F212250E0201516F24
:103BF00000018AEF2EF0FEC06DF2FDC06CF2FD51A7
:103C00000701F76FF86BF250006EF29EAA6A260E5B
:103C1000A96EF7C7A8FFA69CA69EA6840F01550E05
:103C2000A76EAA0EA76EA682A6B2FED7A6940050D3
:103C3000F212FEC0F7F70701F86BF86BF250006E56
:103C4000F29EAA6A270EA96EF7C7A8FFA69CA69E99
:103C5000A6840F01550EA76EAA0EA76EA682A6B265
:103C6000FED7A6940050F2129C0E0201516F000183
:103C70008AEF2EF0FEC06FF2FDC06EF2FD5107011B
:103C8000F76FF86BF250006EF29EAA6A600EA96E92
:103C9000F7C7A8FFA69CA69EA6840F01550EA76E87
:103CA000AA0EA76EA682A6B2FED7A6940050F21264
:103CB000FEC0F7F70701F86BF86BF250006EF29E4A
:103CC000AA6A610EA96EF7C7A8FFA69CA69EA68445
:103CD0000F01550EA76EAA0EA76EA682A6B2FED73A
:103CE000A6940050F212D00E0201516F00018AEF2B
:103CF0002EF0000E020170B1010E0701F76FF250B5
:103D0000006EF29EAA6A080EA96EF7C7A8FFA69CCD
:103D1000A69EA6840F01550EA76EAA0EA76EA682B8
:103D2000A6B2FED7A6940050F212260E0201516FE1
:103D300000018AEF2EF0F250006EF29EAA6A090E80
:103D4000A96E71C2A8FFA69CA69EA6840F01550E5F
:103D5000A76EAA0EA76EA682A6B2FED7A6940050A2
:103D6000F212270E0201516F00018AEF2EF0FEC001
:103D700073F2FDC072F2FD510701F76FF86BF2505C
:103D8000006EF29EAA6A280EA96EF7C7A8FFA69C2D
:103D9000A69EA6840F01550EA76EAA0EA76EA68238
:103DA000A6B2FED7A6940050F212FEC0F7F70701A4
:103DB000F86BF86BF250006EF29EAA6A290EA96E9B
:103DC000F7C7A8FFA69CA69EA6840F01550EA76E56
:103DD000AA0EA76EA682A6B2FED7A6940050F21233
:103DE0009E0E0201516F00018AEF2EF0FEC075F2A7
:103DF000FDC074F2FD510701F76FF86BF250006ED1
:103E0000F29EAA6A620EA96EF7C7A8FFA69CA69E9C
:103E1000A6840F01550EA76EAA0EA76EA682A6B2A3
:103E2000FED7A6940050F212FEC0F7F70701F86B18
:103E3000F86BF250006EF29EAA6A630EA96EF7C785
:103E4000A8FFA69CA69EA6840F01550EA76EAA0EDB
:103E5000A76EA682A6B2FED7A6940050F212D20E8A
:103E60000201516F00018AEF2EF0000E020176B1BF
:103E7000010E0701F76FF250006EF29EAA6A0A0E59
:103E8000A96EF7C7A8FFA69CA69EA6840F01550E93
:103E9000A76EAA0EA76EA682A6B2FED7A694005061
:103EA000F212280E0201516F00018AEF2EF0F2503B
:103EB000006EF29EAA6A0B0EA96E77C2A8FFA69C9E
:103EC000A69EA6840F01550EA76EAA0EA76EA68207
:103ED000A6B2FED7A6940050F212290E0201516F2D
:103EE00000018AEF2EF0FEC079F2FDC078F2FD519C
:103EF0000701F76FF86BF250006EF29EAA6A2A0E65
:103F0000A96EF7C7A8FFA69CA69EA6840F01550E12
:103F1000A76EAA0EA76EA682A6B2FED7A6940050E0
:103F2000F212FEC0F7F70701F86BF86BF250006E63
:103F3000F29EAA6A2B0EA96EF7C7A8FFA69CA69EA2
:103F4000A6840F01550EA76EAA0EA76EA682A6B272
:103F5000FED7A6940050F212A00E0201516F00018C
:103F60008AEF2EF0FEC07BF2FDC07AF2FD51070110
:103F7000F76FF86BF250006EF29EAA6A640EA96E9B
:103F8000F7C7A8FFA69CA69EA6840F01550EA76E94
:103F9000AA0EA76EA682A6B2FED7A6940050F21271
:103FA000FEC0F7F70701F86BF86BF250006EF29E57
:103FB000AA6A650EA96EF7C7A8FFA69CA69EA6844E
:103FC0000F01550EA76EAA0EA76EA682A6B2FED747
:103FD000A6940050F212D40E0201516F00018AEF34
:103FE0002EF0000E02017CB1010E0701F76FF250B6
:103FF000006EF29EAA6A0C0EA96EF7C7A8FFA69CD7
:10400000A69EA6840F01550EA76EAA0EA76EA682C5
:10401000A6B2FED7A6940050F2122A0E0201516FEA
:1040200000018AEF2EF0F250006EF29EAA6A0D0E89
:10403000A96E7DC2A8FFA69CA69EA6840F01550E60
:10404000A76EAA0EA76EA682A6B2FED7A6940050AF
:10405000F2122B0E0201516F00018AEF2EF0FEC00A
:104060007FF2FDC07EF2FD510701F76FF86BF25051
:10407000006EF29EAA6A2C0EA96EF7C7A8FFA69C36
:10408000A69EA6840F01550EA76EAA0EA76EA68245
:10409000A6B2FED7A6940050F212FEC0F7F70701B1
:1040A000F86BF86BF250006EF29EAA6A2D0EA96EA4
:1040B000F7C7A8FFA69CA69EA6840F01550EA76E63
:1040C000AA0EA76EA682A6B2FED7A6940050F21240
:1040D000A20E0201516F00018AEF2EF0FEC081F2A4
:1040E000FDC080F2FD510701F76FF86BF250006ED2
:1040F000F29EAA6A660EA96EF7C7A8FFA69CA69EA6
:10410000A6840F01550EA76EAA0EA76EA682A6B2B0
:10411000FED7A6940050F212FEC0F7F70701F86B25
:10412000F86BF250006EF29EAA6A670EA96EF7C78E
:10413000A8FFA69CA69EA6840F01550EA76EAA0EE8
:10414000A76EA682A6B2FED7A6940050F212D60E93
:104150000201516F00018AEF2EF0000E020182B1C0
:10416000010E0701F76FF250006EF29EAA6A0E0E62
:10417000A96EF7C7A8FFA69CA69EA6840F01550EA0
:10418000A76EAA0EA76EA682A6B2FED7A69400506E
:10419000F2122C0E0201516F00018AEF2EF0F25044
:1041A000006EF29EAA6A0F0EA96E83C2A8FFA69C9B
:1041B000A69EA6840F01550EA76EAA0EA76EA68214
:1041C000A6B2FED7A6940050F2122D0E0201516F36
:1041D00000018AEF2EF0FEC085F2FDC084F2FD5191
:1041E0000701F76FF86BF250006EF29EAA6A2E0E6E
:1041F000A96EF7C7A8FFA69CA69EA6840F01550E20
:10420000A76EAA0EA76EA682A6B2FED7A6940050ED
:10421000F212FEC0F7F70701F86BF86BF250006E70
:10422000F29EAA6A2F0EA96EF7C7A8FFA69CA69EAB
:10423000A6840F01550EA76EAA0EA76EA682A6B27F
:10424000FED7A6940050F212A40E0201516F000195
:104250008AEF2EF0FEC087F2FDC086F2FD51070105
:10426000F76FF86BF250006EF29EAA6A680EA96EA4
:10427000F7C7A8FFA69CA69EA6840F01550EA76EA1
:10428000AA0EA76EA682A6B2FED7A6940050F2127E
:10429000FEC0F7F70701F86BF86BF250006EF29E64
:1042A000AA6A690EA96EF7C7A8FFA69CA69EA68457
:1042B0000F01550EA76EAA0EA76EA682A6B2FED754
:1042C000A6940050F212D80E0201516F00018AEF3D
:1042D0002EF0000E020188B1010E0701F76FF250B7
:1042E000006EF29EAA6A100EA96EF7C7A8FFA69CE0
:1042F000A69EA6840F01550EA76EAA0EA76EA682D3
:10430000A6B2FED7A6940050F2122E0E0201516FF3
:1043100000018AEF2EF0F250006EF29EAA6A110E92
:10432000A96E89C2A8FFA69CA69EA6840F01550E61
:10433000A76EAA0EA76EA682A6B2FED7A6940050BC
:10434000F2122F0E0201516F00018AEF2EF0FEC013
:104350008BF2FDC08AF2FD510701F76FF86BF25046
:10436000006EF29EAA6A300EA96EF7C7A8FFA69C3F
:10437000A69EA6840F01550EA76EAA0EA76EA68252
:10438000A6B2FED7A6940050F212FEC0F7F70701BE
:10439000F86BF86BF250006EF29EAA6A310EA96EAD
:1043A000F7C7A8FFA69CA69EA6840F01550EA76E70
:1043B000AA0EA76EA682A6B2FED7A6940050F2124D
:1043C000A60E0201516F00018AEF2EF0FEC08DF2A1
:1043D000FDC08CF2FD510701F76FF86BF250006ED3
:1043E000F29EAA6A6A0EA96EF7C7A8FFA69CA69EAF
:1043F000A6840F01550EA76EAA0EA76EA682A6B2BE
:10440000FED7A6940050F212FEC0F7F70701F86B32
:10441000F86BF250006EF29EAA6A6B0EA96EF7C797
:10442000A8FFA69CA69EA6840F01550EA76EAA0EF5
:10443000A76EA682A6B2FED7A6940050F212DA0E9C
:104440000201516F00018AEF2EF0000E02018EB1C1
:10445000010E0701F76FF250006EF29EAA6A120E6B
:10446000A96EF7C7A8FFA69CA69EA6840F01550EAD
:10447000A76EAA0EA76EA682A6B2FED7A69400507B
:10448000F212300E0201516F00018AEF2EF0F2504D
:10449000006EF29EAA6A130EA96E8FC2A8FFA69C98
:1044A000A69EA6840F01550EA76EAA0EA76EA68221
:1044B000A6B2FED7A6940050F212310E0201516F3F
:1044C00000018AEF2EF0FEC091F2FDC090F2FD5186
:1044D0000701F76FF86BF250006EF29EAA6A320E77
:1044E000A96EF7C7A8FFA69CA69EA6840F01550E2D
:1044F000A76EAA0EA76EA682A6B2FED7A6940050FB
:10450000F212FEC0F7F70701F86BF86BF250006E7D
:10451000F29EAA6A330EA96EF7C7A8FFA69CA69EB4
:10452000A6840F01550EA76EAA0EA76EA682A6B28C
:10453000FED7A6940050F212A80E0201516F00019E
:104540008AEF2EF0FEC093F2FDC092F2FD510701FA
:10455000F76FF86BF250006EF29EAA6A6C0EA96EAD
:10456000F7C7A8FFA69CA69EA6840F01550EA76EAE
:10457000AA0EA76EA682A6B2FED7A6940050F2128B
:10458000FEC0F7F70701F86BF86BF250006EF29E71
:10459000AA6A6D0EA96EF7C7A8FFA69CA69EA68460
:1045A0000F01550EA76EAA0EA76EA682A6B2FED761
:1045B000A6940050F212DC0E0201516F00018AEF46
:1045C0002EF0000E020194B1010E0701F76FF250B8
:1045D000006EF29EAA6A140EA96EF7C7A8FFA69CE9
:1045E000A69EA6840F01550EA76EAA0EA76EA682E0
:1045F000A6B2FED7A6940050F212320E0201516FFD
:1046000000018AEF2EF0F250006EF29EAA6A150E9B
:10461000A96E95C2A8FFA69CA69EA6840F01550E62
:10462000A76EAA0EA76EA682A6B2FED7A6940050C9
:10463000F212330E0201516F00018AEF2EF0FEC01C
:1046400097F2FDC096F2FD510701F76FF86BF2503B
:10465000006EF29EAA6A340EA96EF7C7A8FFA69C48
:10466000A69EA6840F01550EA76EAA0EA76EA6825F
:10467000A6B2FED7A6940050F212FEC0F7F70701CB
:10468000F86BF86BF250006EF29EAA6A350EA96EB6
:10469000F7C7A8FFA69CA69EA6840F01550EA76E7D
:1046A000AA0EA76EA682A6B2FED7A6940050F2125A
:1046B000AA0E0201516F00018AEF2EF0FEC099F29E
:1046C000FDC098F2FD510701F76FF86BF250006ED4
:1046D000F29EAA6A6E0EA96EF7C7A8FFA69CA69EB8
:1046E000A6840F01550EA76EAA0EA76EA682A6B2CB
:1046F000FED7A6940050F212FEC0F7F70701F86B40
:10470000F86BF250006EF29EAA6A6F0EA96EF7C7A0
:10471000A8FFA69CA69EA6840F01550EA76EAA0E02
:10472000A76EA682A6B2FED7A6940050F212DE0EA5
:104730000201516F00018AEF2EF0000E02019AB1C2
:10474000010E0701F76FF250006EF29EAA6A160E74
:10475000A96EF7C7A8FFA69CA69EA6840F01550EBA
:10476000A76EAA0EA76EA682A6B2FED7A694005088
:10477000F212340E0201516F00018AEF2EF0F25056
:10478000006EF29EAA6A170EA96E9BC2A8FFA69C95
:10479000A69EA6840F01550EA76EAA0EA76EA6822E
:1047A000A6B2FED7A6940050F212350E0201516F48
:1047B00000018AEF2EF0FEC09DF2FDC09CF2FD517B
:1047C0000701F76FF86BF250006EF29EAA6A360E80
:1047D000A96EF7C7A8FFA69CA69EA6840F01550E3A
:1047E000A76EAA0EA76EA682A6B2FED7A694005008
:1047F000F212FEC0F7F70701F86BF86BF250006E8B
:10480000F29EAA6A370EA96EF7C7A8FFA69CA69EBD
:10481000A6840F01550EA76EAA0EA76EA682A6B299
:10482000FED7A6940050F212AC0E0201516F0001A7
:104830008AEF2EF0FEC09FF2FDC09EF2FD510701EF
:10484000F76FF86BF250006EF29EAA6A700EA96EB6
:10485000F7C7A8FFA69CA69EA6840F01550EA76EBB
:10486000AA0EA76EA682A6B2FED7A6940050F21298
:10487000FEC0F7F70701F86BF86BF250006EF29E7E
:10488000AA6A710EA96EF7C7A8FFA69CA69EA68469
:104890000F01550EA76EAA0EA76EA682A6B2FED76E
:1048A000A6940050F212E00E0201516F00018AEF4F
:1048B0002EF0000E0201A0B1010E0701F76FF250B9
:1048C000006EF29EAA6A180EA96EF7C7A8FFA69CF2
:1048D000A69EA6840F01550EA76EAA0EA76EA682ED
:1048E000A6B2FED7A6940050F212360E0201516F06
:1048F00000018AEF2EF0F250006EF29EAA6A190EA5
:10490000A96EA1C2A8FFA69CA69EA6840F01550E63
:10491000A76EAA0EA76EA682A6B2FED7A6940050D6
:10492000F212370E0201516F00018AEF2EF0FEC025
:10493000A3F2FDC0A2F2FD510701F76FF86BF25030
:10494000006EF29EAA6A380EA96EF7C7A8FFA69C51
:10495000A69EA6840F01550EA76EAA0EA76EA6826C
:10496000A6B2FED7A6940050F212FEC0F7F70701D8
:10497000F86BF86BF250006EF29EAA6A390EA96EBF
:10498000F7C7A8FFA69CA69EA6840F01550EA76E8A
:10499000AA0EA76EA682A6B2FED7A6940050F21267
:1049A000AE0E0201516F00018AEF2EF0FEC0A5F29B
:1049B000FDC0A4F2FD510701F76FF86BF250006ED5
:1049C000F29EAA6A720EA96EF7C7A8FFA69CA69EC1
:1049D000A6840F01550EA76EAA0EA76EA682A6B2D8
:1049E000FED7A6940050F212FEC0F7F70701F86B4D
:1049F000F86BF250006EF29EAA6A730EA96EF7C7AA
:104A0000A8FFA69CA69EA6840F01550EA76EAA0E0F
:104A1000A76EA682A6B2FED7A6940050F212E20EAE
:104A20000201516F00018AEF2EF0000E0201A6B1C3
:104A3000010E0701F76FF250006EF29EAA6A1A0E7D
:104A4000A96EF7C7A8FFA69CA69EA6840F01550EC7
:104A5000A76EAA0EA76EA682A6B2FED7A694005095
:104A6000F212380E0201516F00018AEF2EF0F2505F
:104A7000006EF29EAA6A1B0EA96EA7C2A8FFA69C92
:104A8000A69EA6840F01550EA76EAA0EA76EA6823B
:104A9000A6B2FED7A6940050F212390E0201516F51
:104AA00000018AEF2EF0FEC0A9F2FDC0A8F2FD5170
:104AB0000701F76FF86BF250006EF29EAA6A3A0E89
:104AC000A96EF7C7A8FFA69CA69EA6840F01550E47
:104AD000A76EAA0EA76EA682A6B2FED7A694005015
:104AE000F212FEC0F7F70701F86BF86BF250006E98
:104AF000F29EAA6A3B0EA96EF7C7A8FFA69CA69EC7
:104B0000A6840F01550EA76EAA0EA76EA682A6B2A6
:104B1000FED7A6940050F212B00E0201516F0001B0
:104B20008AEF2EF0FEC0ABF2FDC0AAF2FD510701E4
:104B3000F76FF86BF250006EF29EAA6A740EA96EBF
:104B4000F7C7A8FFA69CA69EA6840F01550EA76EC8
:104B5000AA0EA76EA682A6B2FED7A6940050F212A5
:104B6000FEC0F7F70701F86BF86BF250006EF29E8B
:104B7000AA6A750EA96EF7C7A8FFA69CA69EA68472
:104B80000F01550EA76EAA0EA76EA682A6B2FED77B
:104B9000A6940050F212E40E0201516F00018AEF58
:104BA0002EF0000E0201ACB1010E0701F76FF250BA
:104BB000006EF29EAA6A1C0EA96EF7C7A8FFA69CFB
:104BC000A69EA6840F01550EA76EAA0EA76EA682FA
:104BD000A6B2FED7A6940050F2123A0E0201516F0F
:104BE00000018AEF2EF0F250006EF29EAA6A1D0EAE
:104BF000A96EADC2A8FFA69CA69EA6840F01550E65
:104C0000A76EAA0EA76EA682A6B2FED7A6940050E3
:104C1000F2123B0E0201516F00018AEF2EF0FEC02E
:104C2000AFF2FDC0AEF2FD510701F76FF86BF25025
:104C3000006EF29EAA6A3C0EA96EF7C7A8FFA69C5A
:104C4000A69EA6840F01550EA76EAA0EA76EA68279
:104C5000A6B2FED7A6940050F212FEC0F7F70701E5
:104C6000F86BF86BF250006EF29EAA6A3D0EA96EC8
:104C7000F7C7A8FFA69CA69EA6840F01550EA76E97
:104C8000AA0EA76EA682A6B2FED7A6940050F21274
:104C9000B20E0201516F00018AEF2EF0FEC0B1F298
:104CA000FDC0B0F2FD510701F76FF86BF250006ED6
:104CB000F29EAA6A760EA96EF7C7A8FFA69CA69ECA
:104CC000A6840F01550EA76EAA0EA76EA682A6B2E5
:104CD000FED7A6940050F212FEC0F7F70701F86B5A
:104CE000F86BF250006EF29EAA6A770EA96EF7C7B3
:104CF000A8FFA69CA69EA6840F01550EA76EAA0E1D
:104D0000A76EA682A6B2FED7A6940050F212E60EB7
:104D10000201516F00018AEF2EF0000E0201B2B1C4
:104D2000010E0701F76FF250006EF29EAA6A1E0E86
:104D3000A96EF7C7A8FFA69CA69EA6840F01550ED4
:104D4000A76EAA0EA76EA682A6B2FED7A6940050A2
:104D5000F2123C0E0201516F00018AEF2EF0F25068
:104D6000006EF29EAA6A1F0EA96EB3C2A8FFA69C8F
:104D7000A69EA6840F01550EA76EAA0EA76EA68248
:104D8000A6B2FED7A6940050F2123D0E0201516F5A
:104D900000018AEF2EF0FEC0B5F2FDC0B4F2FD5165
:104DA0000701F76FF86BF250006EF29EAA6A3E0E92
:104DB000A96EF7C7A8FFA69CA69EA6840F01550E54
:104DC000A76EAA0EA76EA682A6B2FED7A694005022
:104DD000F212FEC0F7F70701F86BF86BF250006EA5
:104DE000F29EAA6A3F0EA96EF7C7A8FFA69CA69ED0
:104DF000A6840F01550EA76EAA0EA76EA682A6B2B4
:104E0000FED7A6940050F212B40E0201516F0001B9
:104E10008AEF2EF0FEC0B7F2FDC0B6F2FD510701D9
:104E2000F76FF86BF250006EF29EAA6A780EA96EC8
:104E3000F7C7A8FFA69CA69EA6840F01550EA76ED5
:104E4000AA0EA76EA682A6B2FED7A6940050F212B2
:104E5000FEC0F7F70701F86BF86BF250006EF29E98
:104E6000AA6A790EA96EF7C7A8FFA69CA69EA6847B
:104E70000F01550EA76EAA0EA76EA682A6B2FED788
:104E8000A6940050F212E80E0201516F00018AEF61
:104E90002EF0000E0201B8B1010E0701F76FF250BB
:104EA000006EF29EAA6A4A0EA96EF7C7A8FFA69CDA
:104EB000A69EA6840F01550EA76EAA0EA76EA68207
:104EC000A6B2FED7A6940050F2123E0E0201516F18
:104ED00000018AEF2EF0F250006EF29EAA6A4B0E8D
:104EE000A96EB9C2A8FFA69CA69EA6840F01550E66
:104EF000A76EAA0EA76EA682A6B2FED7A6940050F1
:104F0000F2123F0E0201516F00018AEF2EF0FEC037
:104F1000BBF2FDC0BAF2FD510701F76FF86BF2501A
:104F2000006EF29EAA6A4C0EA96EF7C7A8FFA69C57
:104F3000A69EA6840F01550EA76EAA0EA76EA68286
:104F4000A6B2FED7A6940050F212FEC0F7F70701F2
:104F5000F86BF86BF250006EF29EAA6A4D0EA96EC5
:104F6000F7C7A8FFA69CA69EA6840F01550EA76EA4
:104F7000AA0EA76EA682A6B2FED7A6940050F21281
:104F8000B60E0201516F00018AEF2EF0FEC0BDF295
:104F9000FDC0BCF2FD510701F76FF86BF250006ED7
:104FA000F29EAA6A7A0EA96EF7C7A8FFA69CA69ED3
:104FB000A6840F01550EA76EAA0EA76EA682A6B2F2
:104FC000FED7A6940050F212FEC0F7F70701F86B67
:104FD000F86BF250006EF29EAA6A7B0EA96EF7C7BC
:104FE000A8FFA69CA69EA6840F01550EA76EAA0E2A
:104FF000A76EA682A6B2FED7A6940050F212EA0EC1
:105000000201516F00018AEF2EF0000E0201BEB1C5
:10501000010E0701F76FF250006EF29EAA6A4E0E63
:10502000A96EF7C7A8FFA69CA69EA6840F01550EE1
:10503000A76EAA0EA76EA682A6B2FED7A6940050AF
:10504000F212400E0201516F00018AEF2EF0F25071
:10505000006EF29EAA6A4F0EA96EBFC2A8FFA69C60
:10506000A69EA6840F01550EA76EAA0EA76EA68255
:10507000A6B2FED7A6940050F212410E0201516F63
:1050800000018AEF2EF0FEC0C1F2FDC0C0F2FD515A
:105090000701F76FF86BF250006EF29EAA6A500E8D
:1050A000A96EF7C7A8FFA69CA69EA6840F01550E61
:1050B000A76EAA0EA76EA682A6B2FED7A69400502F
:1050C000F212FEC0F7F70701F86BF86BF250006EB2
:1050D000F29EAA6A510EA96EF7C7A8FFA69CA69ECB
:1050E000A6840F01550EA76EAA0EA76EA682A6B2C1
:1050F000FED7A6940050F212B80E0201516F0001C3
:105100008AEF2EF0FEC0C3F2FDC0C2F2FD510701CE
:10511000F76FF86BF250006EF29EAA6A7C0EA96ED1
:10512000F7C7A8FFA69CA69EA6840F01550EA76EE2
:10513000AA0EA76EA682A6B2FED7A6940050F212BF
:10514000FEC0F7F70701F86BF86BF250006EF29EA5
:10515000AA6A7D0EA96EF7C7A8FFA69CA69EA68484
:105160000F01550EA76EAA0EA76EA682A6B2FED795
:10517000A6940050F212EC0E0201516F00018AEF6A
:105180002EF0000E0201C4B1010E0701F76FF250BC
:10519000006EF29EAA6A520EA96EF7C7A8FFA69CDF
:1051A000A69EA6840F01550EA76EAA0EA76EA68214
:1051B000A6B2FED7A6940050F212420E0201516F21
:1051C00000018AEF2EF0F250006EF29EAA6A530E92
:1051D000A96EC5C2A8FFA69CA69EA6840F01550E67
:1051E000A76EAA0EA76EA682A6B2FED7A6940050FE
:1051F000F212430E0201516F00018AEF2EF0FEC041
:10520000C7F2FDC0C6F2FD510701F76FF86BF2500F
:10521000006EF29EAA6A540EA96EF7C7A8FFA69C5C
:10522000A69EA6840F01550EA76EAA0EA76EA68293
:10523000A6B2FED7A6940050F212FEC0F7F70701FF
:10524000F86BF86BF250006EF29EAA6A550EA96ECA
:10525000F7C7A8FFA69CA69EA6840F01A76EAA0E5C
:10526000A76EA682A6B2FED7A6940050F212BA0E7E
:105270000201516F00018AEF2EF0FEC0C9F2FDC09D
:10528000C8F2FD510701F76FF86BF250006EF29E05
:10529000AA6A7E0EA96EF7C7A8FFA69CA69EA68442
:1052A0000F01550EA76EAA0EA76EA682A6B2FED754
:1052B000A6940050F212FEC0F7F70701F86BF86BE6
:1052C000F250006EF29EAA6A7F0EA96EF7C7A8FF81
:1052D000A69CA69EA6840F01550EA76EAA0EA76EC9
:1052E000A682A6B2FED7A6940050F212EE0E0201DC
:1052F000516F00018AEF2EF0000E0201CAB1010EBB
:105300000701F76FF250006EF29EAA6A560EA96E60
:10531000F7C7A8FFA69CA69EA6840F01550EA76EF0
:10532000AA0EA76EA682A6B2FED7A6940050F212CD
:10533000440E0201516F00018AEF2EF0F250006E10
:10534000F29EAA6A570EA96ECBC2A8FFA69CA69E83
:10535000A6840F01550EA76EAA0EA76EA682A6B24E
:10536000FED7A6940050F212450E0201516F0001C3
:105370008AEF2EF0FEC0CDF2FDC0CCF2FD51070148
:10538000F76FF86BF250006EF29EAA6A580EA96E83
:10539000F7C7A8FFA69CA69EA6840F01550EA76E70
:1053A000AA0EA76EA682A6B2FED7A6940050F2124D
:1053B000FEC0F7F70701F86BF86BF250006EF29E33
:1053C000AA6A590EA96EF7C7A8FFA69CA69EA68436
:1053D0000F01550EA76EAA0EA76EA682A6B2FED723
:1053E000A6940050F212BC0E0201516F00018AEF28
:1053F0002EF0FEC0CFF2FDC0CEF2FD510701F76FD7
:10540000F86BF250006EF29EAA6A800EA96EF7C782
:10541000A8FFA69CA69EA6840F01550EA76EAA0EF5
:10542000A76EA682A6B2FED7A6940050F212FEC0C6
:10543000F7F70701F86BF86BF250006EF29EAA6A5C
:10544000810EA96EF7C7A8FFA69CA69EA6840F0191
:10545000550EA76EAA0EA76EA682A6B2FED7A69478
:105460000050F212F00E0201516F00018AEF2EF08F
:10547000000E0201D0B1010E0701F76FF250006E6D
:10548000F29EAA6A820EA96EF7C7A8FFA69CA69EE6
:10549000A6840F01550EA76EAA0EA76EA682A6B20D
:1054A000FED7A6940050F212460E0201516F000181
:1054B0008AEF2EF0F250006EF29EAA6A830EA96E59
:1054C000D1C2A8FFA69CA69EA6840F01550EA76E6A
:1054D000AA0EA76EA682A6B2FED7A6940050F2121C
:1054E000470E0201516F00018AEF2EF0FEC0D3F289
:1054F000FDC0D2F2FD510701F76FF86BF250006E5C
:10550000F29EAA6A840EA96EF7C7A8FFA69CA69E63
:10551000A6840F01550EA76EAA0EA76EA682A6B28C
:10552000FED7A6940050F212FEC0F7F70701F86B01
:10553000F86BF250006EF29EAA6A850EA96EF7C74C
:10554000A8FFA69CA69EA6840F01550EA76EAA0EC4
:10555000A76EA682A6B2FED7A6940050F212BE0E87
:105560000201516F00018AEF2EF0FEC0D5F2FDC09E
:10557000D4F2FD510701F76FF86BF250006EF29E06
:10558000AA6A860EA96EF7C7A8FFA69CA69EA68447
:105590000F01550EA76EAA0EA76EA682A6B2FED761
:1055A000A6940050F212FEC0F7F70701F86BF86BF3
:1055B000F250006EF29EAA6A870EA96EF7C7A8FF86
:1055C000A69CA69EA6840F01550EA76EAA0EA76ED6
:1055D000A682A6B2FED7A6940050F212F00E0201E7
:1055E000516F000197D3000E0201D6B1010E0701E1
:1055F000F76FF250006EF29EAA6A880EA96EF7C786
:10560000A8FFA69CA69EA6840F01550EA76EAA0E03
:10561000A76EA682A6B2FED7A6940050F212480E3C
:105620000201516F000176D3F250006EF29EAA6A19
:10563000890EA96ED7C2A8FFA69CA69EA6840F01BC
:10564000550EA76EAA0EA76EA682A6B2FED7A69486
:105650000050F212490E0201516F00015BD3FEC0EF
:10566000D9F2FDC0D8F2FD510701F76FF86BF25087
:10567000006EF29EAA6A8A0EA96EF7C7A8FFA69CC2
:10568000A69EA6840F01550EA76EAA0EA76EA6822F
:10569000A6B2FED7A6940050F212FEC0F7F707019B
:1056A000F86BF86BF250006EF29EAA6A8B0EA96E30
:1056B000F7C7A8FFA69CA69EA6840F01550EA76E4D
:1056C000AA0EA76EA682A6B2FED7A6940050F2122A
:1056D000C00E0201516F00011DD3FEC0DBF2FDC000
:1056E000DAF2FD510701F76FF86BF250006EF29E8F
:1056F000AA6A8C0EA96EF7C7A8FFA69CA69EA684D0
:105700000F01550EA76EAA0EA76EA682A6B2FED7EF
:10571000A6940050F212FEC0F7F70701F86BF86B81
:10572000F250006EF29EAA6A8D0EA96EF7C7A8FF0E
:10573000A69CA69EA6840F01550EA76EAA0EA76E64
:10574000A682A6B2FED7A6940050F212F40E020171
:10575000516F0001DFD2000E0201DCB1010E070122
:10576000F76FF250006EF29EAA6A8E0EA96EF7C70E
:10577000A8FFA69CA69EA6840F01550EA76EAA0E92
:10578000A76EA682A6B2FED7A6940050F2124A0EC9
:105790000201516F0001BED2F250006EF29EAA6A61
:1057A0008F0EA96EDDC2A8FFA69CA69EA6840F013F
:1057B000550EA76EAA0EA76EA682A6B2FED7A69415
:1057C0000050F2124B0E0201516F0001A3D2FEC035
:1057D000DFF2FDC0DEF2FD510701F76FF86BF2500A
:1057E000006EF29EAA6A900EA96EF7C7A8FFA69C4B
:1057F000A69EA6840F01550EA76EAA0EA76EA682BE
:10580000A6B2FED7A6940050F212FEC0F7F7070129
:10581000F86BF86BF250006EF29EAA6A910EA96EB8
:10582000F7C7A8FFA69CA69EA6840F01550EA76EDB
:10583000AA0EA76EA682A6B2FED7A6940050F212B8
:10584000C20E0201516F000165D2FEC0E1F2FDC03F
:10585000E0F2FD510701F76FF86BF250006EF29E17
:10586000AA6A920EA96EF7C7A8FFA69CA69EA68458
:105870000F01550EA76EAA0EA76EA682A6B2FED77E
:10588000A6940050F212FEC0F7F70701F86BF86B10
:10589000F250006EF29EAA6A930EA96EF7C7A8FF97
:1058A000A69CA69EA6840F01550EA76EAA0EA76EF3
:1058B000A682A6B2FED7A6940050F212F60E0201FE
:1058C000516F000127D2000E0201E2B1010E070163
:1058D000F76FF250006EF29EAA6A940EA96EF7C797
:1058E000A8FFA69CA69EA6840F01550EA76EAA0E21
:1058F000A76EA682A6B2FED7A6940050F2124C0E56
:105900000201516F000106D2F250006EF29EAA6AA7
:10591000950EA96EE3C2A8FFA69CA69EA6840F01C1
:10592000550EA76EAA0EA76EA682A6B2FED7A694A3
:105930000050F2124D0E0201516F0001EBD1FEC07A
:10594000E5F2FDC0E4F2FD510701F76FF86BF2508C
:10595000006EF29EAA6A960EA96EF7C7A8FFA69CD3
:10596000A69EA6840F01550EA76EAA0EA76EA6824C
:10597000A6B2FED7A6940050F212FEC0F7F70701B8
:10598000F86BF86BF250006EF29EAA6A970EA96E41
:10599000F7C7A8FFA69CA69EA6840F01550EA76E6A
:1059A000AA0EA76EA682A6B2FED7A6940050F21247
:1059B000C40E0201516F0001ADD1FEC0E7F2FDC07F
:1059C000E6F2FD510701F76FF86BF250006EF29EA0
:1059D000AA6A980EA96EF7C7A8FFA69CA69EA684E1
:1059E0000F01550EA76EAA0EA76EA682A6B2FED70D
:1059F000A6940050F212FEC0F7F70701F86BF86B9F
:105A0000F250006EF29EAA6A990EA96EF7C7A8FF1F
:105A1000A69CA69EA6840F01550EA76EAA0EA76E81
:105A2000A682A6B2FED7A6940050F212F80E02018A
:105A3000516F00016FD1000E0201E8B1010E0701A4
:105A4000F76FF250006EF29EAA6A9A0EA96EF7C71F
:105A5000A8FFA69CA69EA6840F01550EA76EAA0EAF
:105A6000A76EA682A6B2FED7A6940050F2124E0EE2
:105A70000201516F00014ED1F250006EF29EAA6AEF
:105A80009B0EA96EE9C2A8FFA69CA69EA6840F0144
:105A9000550EA76EAA0EA76EA682A6B2FED7A69432
:105AA0000050F2124F0E0201516F000133D1FEC0BF
:105AB000EBF2FDC0EAF2FD510701F76FF86BF2500F
:105AC000006EF29EAA6A9C0EA96EF7C7A8FFA69C5C
:105AD000A69EA6840F01550EA76EAA0EA76EA682DB
